{
  "address": "0x2F6ec88553DE644c9A40a2f5ccA9Bf51d01fd561",
  "abi": [
    {
      "inputs": [
        {
          "internalType": "address",
          "name": "_treasury",
          "type": "address"
        },
        {
          "internalType": "address",
          "name": "_dexRouter",
          "type": "address"
        }
      ],
      "stateMutability": "nonpayable",
      "type": "constructor"
    },
    {
      "inputs": [
        {
          "internalType": "address",
          "name": "target",
          "type": "address"
        }
      ],
      "name": "AddressEmptyCode",
      "type": "error"
    },
    {
      "inputs": [
        {
          "internalType": "address",
          "name": "account",
          "type": "address"
        }
      ],
      "name": "AddressInsufficientBalance",
      "type": "error"
    },
    {
      "inputs": [],
      "name": "FailedInnerCall",
      "type": "error"
    },
    {
      "inputs": [
        {
          "internalType": "address",
          "name": "owner",
          "type": "address"
        }
      ],
      "name": "OwnableInvalidOwner",
      "type": "error"
    },
    {
      "inputs": [
        {
          "internalType": "address",
          "name": "account",
          "type": "address"
        }
      ],
      "name": "OwnableUnauthorizedAccount",
      "type": "error"
    },
    {
      "inputs": [],
      "name": "ReentrancyGuardReentrantCall",
      "type": "error"
    },
    {
      "inputs": [
        {
          "internalType": "address",
          "name": "token",
          "type": "address"
        }
      ],
      "name": "SafeERC20FailedOperation",
      "type": "error"
    },
    {
      "anonymous": false,
      "inputs": [
        {
          "indexed": true,
          "internalType": "uint256",
          "name": "poolId",
          "type": "uint256"
        },
        {
          "indexed": true,
          "internalType": "address",
          "name": "creator",
          "type": "address"
        },
        {
          "indexed": true,
          "internalType": "address",
          "name": "tokenAddress",
          "type": "address"
        },
        {
          "indexed": false,
          "internalType": "uint256",
          "name": "deadline",
          "type": "uint256"
        }
      ],
      "name": "DeadpoolCreated",
      "type": "event"
    },
    {
      "anonymous": false,
      "inputs": [
        {
          "indexed": true,
          "internalType": "uint256",
          "name": "poolId",
          "type": "uint256"
        },
        {
          "indexed": true,
          "internalType": "address",
          "name": "depositor",
          "type": "address"
        },
        {
          "indexed": false,
          "internalType": "uint256",
          "name": "amount",
          "type": "uint256"
        },
        {
          "indexed": false,
          "internalType": "uint256",
          "name": "totalDeposited",
          "type": "uint256"
        }
      ],
      "name": "Deposited",
      "type": "event"
    },
    {
      "anonymous": false,
      "inputs": [
        {
          "indexed": true,
          "internalType": "address",
          "name": "oldRouter",
          "type": "address"
        },
        {
          "indexed": true,
          "internalType": "address",
          "name": "newRouter",
          "type": "address"
        }
      ],
      "name": "DexRouterUpdated",
      "type": "event"
    },
    {
      "anonymous": false,
      "inputs": [
        {
          "indexed": true,
          "internalType": "uint256",
          "name": "poolId",
          "type": "uint256"
        },
        {
          "indexed": true,
          "internalType": "address",
          "name": "admin",
          "type": "address"
        },
        {
          "indexed": false,
          "internalType": "uint256",
          "name": "amount",
          "type": "uint256"
        }
      ],
      "name": "EmergencyWithdraw",
      "type": "event"
    },
    {
      "anonymous": false,
      "inputs": [
        {
          "indexed": true,
          "internalType": "address",
          "name": "previousOwner",
          "type": "address"
        },
        {
          "indexed": true,
          "internalType": "address",
          "name": "newOwner",
          "type": "address"
        }
      ],
      "name": "OwnershipTransferred",
      "type": "event"
    },
    {
      "anonymous": false,
      "inputs": [
        {
          "indexed": false,
          "internalType": "uint16",
          "name": "oldFeeBps",
          "type": "uint16"
        },
        {
          "indexed": false,
          "internalType": "uint16",
          "name": "newFeeBps",
          "type": "uint16"
        }
      ],
      "name": "PlatformFeeUpdated",
      "type": "event"
    },
    {
      "anonymous": false,
      "inputs": [
        {
          "indexed": true,
          "internalType": "uint256",
          "name": "poolId",
          "type": "uint256"
        },
        {
          "indexed": true,
          "internalType": "address",
          "name": "creator",
          "type": "address"
        }
      ],
      "name": "PoolCanceled",
      "type": "event"
    },
    {
      "anonymous": false,
      "inputs": [
        {
          "indexed": true,
          "internalType": "uint256",
          "name": "poolId",
          "type": "uint256"
        },
        {
          "indexed": false,
          "internalType": "uint256",
          "name": "totalMonadReceived",
          "type": "uint256"
        },
        {
          "indexed": false,
          "internalType": "address[3]",
          "name": "winners",
          "type": "address[3]"
        },
        {
          "indexed": false,
          "internalType": "uint256",
          "name": "platformFee",
          "type": "uint256"
        }
      ],
      "name": "PoolFinalized",
      "type": "event"
    },
    {
      "anonymous": false,
      "inputs": [
        {
          "indexed": true,
          "internalType": "uint256",
          "name": "poolId",
          "type": "uint256"
        },
        {
          "indexed": true,
          "internalType": "address",
          "name": "winner",
          "type": "address"
        },
        {
          "indexed": false,
          "internalType": "uint256",
          "name": "reward",
          "type": "uint256"
        }
      ],
      "name": "RewardClaimed",
      "type": "event"
    },
    {
      "anonymous": false,
      "inputs": [
        {
          "indexed": true,
          "internalType": "address",
          "name": "oldTreasury",
          "type": "address"
        },
        {
          "indexed": true,
          "internalType": "address",
          "name": "newTreasury",
          "type": "address"
        }
      ],
      "name": "TreasuryUpdated",
      "type": "event"
    },
    {
      "stateMutability": "payable",
      "type": "fallback"
    },
    {
      "inputs": [],
      "name": "BPS_DENOMINATOR",
      "outputs": [
        {
          "internalType": "uint256",
          "name": "",
          "type": "uint256"
        }
      ],
      "stateMutability": "view",
      "type": "function"
    },
    {
      "inputs": [],
      "name": "MAX_PLATFORM_FEE_BPS",
      "outputs": [
        {
          "internalType": "uint256",
          "name": "",
          "type": "uint256"
        }
      ],
      "stateMutability": "view",
      "type": "function"
    },
    {
      "inputs": [],
      "name": "MAX_POOL_DURATION",
      "outputs": [
        {
          "internalType": "uint256",
          "name": "",
          "type": "uint256"
        }
      ],
      "stateMutability": "view",
      "type": "function"
    },
    {
      "inputs": [],
      "name": "MIN_POOL_DURATION",
      "outputs": [
        {
          "internalType": "uint256",
          "name": "",
          "type": "uint256"
        }
      ],
      "stateMutability": "view",
      "type": "function"
    },
    {
      "inputs": [
        {
          "internalType": "uint256",
          "name": "poolId",
          "type": "uint256"
        }
      ],
      "name": "cancelPool",
      "outputs": [],
      "stateMutability": "nonpayable",
      "type": "function"
    },
    {
      "inputs": [
        {
          "internalType": "uint256",
          "name": "poolId",
          "type": "uint256"
        }
      ],
      "name": "claimReward",
      "outputs": [],
      "stateMutability": "nonpayable",
      "type": "function"
    },
    {
      "inputs": [
        {
          "internalType": "address",
          "name": "tokenAddress",
          "type": "address"
        },
        {
          "internalType": "uint256",
          "name": "duration",
          "type": "uint256"
        }
      ],
      "name": "createDeadpool",
      "outputs": [
        {
          "internalType": "uint256",
          "name": "",
          "type": "uint256"
        }
      ],
      "stateMutability": "nonpayable",
      "type": "function"
    },
    {
      "inputs": [
        {
          "internalType": "uint256",
          "name": "poolId",
          "type": "uint256"
        },
        {
          "internalType": "uint256",
          "name": "amount",
          "type": "uint256"
        }
      ],
      "name": "depositToPool",
      "outputs": [],
      "stateMutability": "nonpayable",
      "type": "function"
    },
    {
      "inputs": [],
      "name": "dexRouter",
      "outputs": [
        {
          "internalType": "address",
          "name": "",
          "type": "address"
        }
      ],
      "stateMutability": "view",
      "type": "function"
    },
    {
      "inputs": [
        {
          "internalType": "uint256",
          "name": "poolId",
          "type": "uint256"
        }
      ],
      "name": "emergencyWithdraw",
      "outputs": [],
      "stateMutability": "nonpayable",
      "type": "function"
    },
    {
      "inputs": [
        {
          "internalType": "uint256",
          "name": "poolId",
          "type": "uint256"
        }
      ],
      "name": "finalizePool",
      "outputs": [],
      "stateMutability": "nonpayable",
      "type": "function"
    },
    {
      "inputs": [
        {
          "internalType": "uint256",
          "name": "poolId",
          "type": "uint256"
        }
      ],
      "name": "getPool",
      "outputs": [
        {
          "internalType": "address",
          "name": "creator",
          "type": "address"
        },
        {
          "internalType": "address",
          "name": "tokenAddress",
          "type": "address"
        },
        {
          "internalType": "uint256",
          "name": "deadline",
          "type": "uint256"
        },
        {
          "internalType": "uint256",
          "name": "totalDeposited",
          "type": "uint256"
        },
        {
          "internalType": "uint256",
          "name": "totalMonadReceived",
          "type": "uint256"
        },
        {
          "internalType": "address[3]",
          "name": "winners",
          "type": "address[3]"
        },
        {
          "internalType": "bool",
          "name": "finalized",
          "type": "bool"
        },
        {
          "internalType": "bool",
          "name": "cancelled",
          "type": "bool"
        }
      ],
      "stateMutability": "view",
      "type": "function"
    },
    {
      "inputs": [
        {
          "internalType": "uint256",
          "name": "poolId",
          "type": "uint256"
        }
      ],
      "name": "getPoolDepositors",
      "outputs": [
        {
          "internalType": "address[]",
          "name": "",
          "type": "address[]"
        }
      ],
      "stateMutability": "view",
      "type": "function"
    },
    {
      "inputs": [
        {
          "internalType": "uint256",
          "name": "poolId",
          "type": "uint256"
        },
        {
          "internalType": "address",
          "name": "user",
          "type": "address"
        }
      ],
      "name": "getUserDeposit",
      "outputs": [
        {
          "internalType": "uint256",
          "name": "",
          "type": "uint256"
        }
      ],
      "stateMutability": "view",
      "type": "function"
    },
    {
      "inputs": [
        {
          "internalType": "address",
          "name": "user",
          "type": "address"
        }
      ],
      "name": "getUserDeposits",
      "outputs": [
        {
          "internalType": "uint256[]",
          "name": "",
          "type": "uint256[]"
        }
      ],
      "stateMutability": "view",
      "type": "function"
    },
    {
      "inputs": [
        {
          "internalType": "address",
          "name": "user",
          "type": "address"
        }
      ],
      "name": "getUserPools",
      "outputs": [
        {
          "internalType": "uint256[]",
          "name": "",
          "type": "uint256[]"
        }
      ],
      "stateMutability": "view",
      "type": "function"
    },
    {
      "inputs": [
        {
          "internalType": "uint256",
          "name": "",
          "type": "uint256"
        },
        {
          "internalType": "address",
          "name": "",
          "type": "address"
        }
      ],
      "name": "hasClaimed",
      "outputs": [
        {
          "internalType": "bool",
          "name": "",
          "type": "bool"
        }
      ],
      "stateMutability": "view",
      "type": "function"
    },
    {
      "inputs": [],
      "name": "nextPoolId",
      "outputs": [
        {
          "internalType": "uint256",
          "name": "",
          "type": "uint256"
        }
      ],
      "stateMutability": "view",
      "type": "function"
    },
    {
      "inputs": [],
      "name": "owner",
      "outputs": [
        {
          "internalType": "address",
          "name": "",
          "type": "address"
        }
      ],
      "stateMutability": "view",
      "type": "function"
    },
    {
      "inputs": [],
      "name": "platformFeeBps",
      "outputs": [
        {
          "internalType": "uint16",
          "name": "",
          "type": "uint16"
        }
      ],
      "stateMutability": "view",
      "type": "function"
    },
    {
      "inputs": [
        {
          "internalType": "uint256",
          "name": "",
          "type": "uint256"
        }
      ],
      "name": "pools",
      "outputs": [
        {
          "internalType": "address",
          "name": "creator",
          "type": "address"
        },
        {
          "internalType": "address",
          "name": "tokenAddress",
          "type": "address"
        },
        {
          "internalType": "uint256",
          "name": "deadline",
          "type": "uint256"
        },
        {
          "internalType": "uint256",
          "name": "totalDeposited",
          "type": "uint256"
        },
        {
          "internalType": "uint256",
          "name": "totalMonadReceived",
          "type": "uint256"
        },
        {
          "internalType": "bool",
          "name": "finalized",
          "type": "bool"
        },
        {
          "internalType": "bool",
          "name": "cancelled",
          "type": "bool"
        }
      ],
      "stateMutability": "view",
      "type": "function"
    },
    {
      "inputs": [],
      "name": "renounceOwnership",
      "outputs": [],
      "stateMutability": "nonpayable",
      "type": "function"
    },
    {
      "inputs": [
        {
          "internalType": "address",
          "name": "newRouter",
          "type": "address"
        }
      ],
      "name": "setDexRouter",
      "outputs": [],
      "stateMutability": "nonpayable",
      "type": "function"
    },
    {
      "inputs": [
        {
          "internalType": "uint16",
          "name": "newFeeBps",
          "type": "uint16"
        }
      ],
      "name": "setPlatformFee",
      "outputs": [],
      "stateMutability": "nonpayable",
      "type": "function"
    },
    {
      "inputs": [
        {
          "internalType": "address",
          "name": "newTreasury",
          "type": "address"
        }
      ],
      "name": "setTreasury",
      "outputs": [],
      "stateMutability": "nonpayable",
      "type": "function"
    },
    {
      "inputs": [
        {
          "internalType": "address",
          "name": "newOwner",
          "type": "address"
        }
      ],
      "name": "transferOwnership",
      "outputs": [],
      "stateMutability": "nonpayable",
      "type": "function"
    },
    {
      "inputs": [],
      "name": "treasury",
      "outputs": [
        {
          "internalType": "address",
          "name": "",
          "type": "address"
        }
      ],
      "stateMutability": "view",
      "type": "function"
    },
    {
      "inputs": [
        {
          "internalType": "address",
          "name": "",
          "type": "address"
        },
        {
          "internalType": "uint256",
          "name": "",
          "type": "uint256"
        }
      ],
      "name": "userDeposits",
      "outputs": [
        {
          "internalType": "uint256",
          "name": "",
          "type": "uint256"
        }
      ],
      "stateMutability": "view",
      "type": "function"
    },
    {
      "inputs": [
        {
          "internalType": "address",
          "name": "",
          "type": "address"
        },
        {
          "internalType": "uint256",
          "name": "",
          "type": "uint256"
        }
      ],
      "name": "userPools",
      "outputs": [
        {
          "internalType": "uint256",
          "name": "",
          "type": "uint256"
        }
      ],
      "stateMutability": "view",
      "type": "function"
    },
    {
      "stateMutability": "payable",
      "type": "receive"
    }
  ],
  "transactionHash": "0x16e761d0c0a03ba393b1e417884280484b1194f6a29cf7a3461c1e654a30e39a",
  "args": [
    "0x34963747D3258a7eAc60aeE2eb8635ca1C67Ee72",
    "0x3aE6D8A282D67893e17AA70ebFFb33EE5aa65893"
  ],
  "numDeployments": 3,
  "solcInputHash": "1f6af1e5ecc40df13f75a5c3b7669952",
  "bytecode": "0x608060405260016004556005805461ffff19166103e81790553480156200002557600080fd5b5060405162002501380380620025018339810160408190526200004891620001cf565b33806200007057604051631e4fbdf760e01b8152600060048201526024015b60405180910390fd5b6200007b8162000162565b50600180556001600160a01b038216620000d85760405162461bcd60e51b815260206004820152601860248201527f496e76616c696420747265617375727920616464726573730000000000000000604482015260640162000067565b6001600160a01b038116620001305760405162461bcd60e51b815260206004820152601a60248201527f496e76616c69642044455820726f757465722061646472657373000000000000604482015260640162000067565b600280546001600160a01b039384166001600160a01b0319918216179091556003805492909316911617905562000207565b600080546001600160a01b038381166001600160a01b0319831681178455604051919092169283917f8be0079c531659141344cd1fd0a4f28419497f9722a3daafe3b4186f6b6457e09190a35050565b80516001600160a01b0381168114620001ca57600080fd5b919050565b60008060408385031215620001e357600080fd5b620001ee83620001b2565b9150620001fe60208401620001b2565b90509250929050565b6122ea80620002176000396000f3fe6080604052600436106101ae5760003560e01c8063827c7889116100eb578063ae169a501161008f578063eb82055111610061578063eb820551146105e2578063f0f4426014610602578063f2fde38b14610622578063f72f863b1461064257005b8063ae169a5014610577578063bfffc1a814610597578063c5a1f434146105ac578063e1a45218146105cc57005b80638da5cb5b116100c85780638da5cb5b146104755780639816af58146104935780639a9935b3146104b3578063ac4afa38146104ca57005b8063827c7889146103f4578063873f6f9e146104145780638d01513c1461045f57005b80632a5bf6d2116101525780635312ea8e1161012f5780635312ea8e1461037f5780635cbc742c1461039f57806361d027b3146103bf578063715018a6146103df57005b80632a5bf6d2146102eb5780633aa99782146103185780634e0552441461033857005b80631064aa551161018b5780631064aa551461025a57806318e561311461027a57806322dcd13e146102905780632449e393146102be57005b8063068bcd8d146101b75780630758d924146101f457806308f433331461022c57005b366101b557005b005b3480156101c357600080fd5b506101d76101d2366004611e74565b610662565b6040516101eb989796959493929190611eb9565b60405180910390f35b34801561020057600080fd5b50600354610214906001600160a01b031681565b6040516001600160a01b0390911681526020016101eb565b34801561023857600080fd5b5061024c610247366004611f2d565b610716565b6040519081526020016101eb565b34801561026657600080fd5b5061024c610275366004611f2d565b610747565b34801561028657600080fd5b5061024c60045481565b34801561029c57600080fd5b506005546102ab9061ffff1681565b60405161ffff90911681526020016101eb565b3480156102ca57600080fd5b506102de6102d9366004611e74565b610763565b6040516101eb9190611f57565b3480156102f757600080fd5b5061030b610306366004611fa4565b6107d2565b6040516101eb9190611fbf565b34801561032457600080fd5b5061024c610333366004611f2d565b61083d565b34801561034457600080fd5b5061024c610353366004611ff7565b60008281526006602090815260408083206001600160a01b0385168452600a0190915290205492915050565b34801561038b57600080fd5b506101b561039a366004611e74565b6109c7565b3480156103ab57600080fd5b506101b56103ba366004612023565b610b78565b3480156103cb57600080fd5b50600254610214906001600160a01b031681565b3480156103eb57600080fd5b506101b5610c25565b34801561040057600080fd5b506101b561040f366004611e74565b610c39565b34801561042057600080fd5b5061044f61042f366004611ff7565b600760209081526000928352604080842090915290825290205460ff1681565b60405190151581526020016101eb565b34801561046b57600080fd5b5061024c6103e881565b34801561048157600080fd5b506000546001600160a01b0316610214565b34801561049f57600080fd5b5061030b6104ae366004611fa4565b610dcf565b3480156104bf57600080fd5b5061024c62278d0081565b3480156104d657600080fd5b506105336104e5366004611e74565b6006602052600090815260409020805460018201546002830154600384015460048501546008909501546001600160a01b039485169593909416939192909160ff8082169161010090041687565b604080516001600160a01b0398891681529790961660208801529486019390935260608501919091526080840152151560a0830152151560c082015260e0016101eb565b34801561058357600080fd5b506101b5610592366004611e74565b610e39565b3480156105a357600080fd5b5061024c603c81565b3480156105b857600080fd5b506101b56105c7366004611e74565b61109a565b3480156105d857600080fd5b5061024c61271081565b3480156105ee57600080fd5b506101b56105fd366004612047565b611360565b34801561060e57600080fd5b506101b561061d366004611fa4565b61162e565b34801561062e57600080fd5b506101b561063d366004611fa4565b6116de565b34801561064e57600080fd5b506101b561065d366004611fa4565b61171c565b6000806000806000610672611de9565b60008781526006602052604080822080546001820154600283015460038085015460048601546008870154885160608101998a90528a996001600160a01b0398891698909716969394929360058a019360ff80851694610100900416929185919082845b81546001600160a01b031681526001909101906020018083116106d657505050505092509850985098509850985098509850985050919395975091939597565b6009602052816000526040600020818154811061073257600080fd5b90600052602060002001600091509150505481565b6008602052816000526040600020818154811061073257600080fd5b6000818152600660209081526040918290206009018054835181840281018401909452808452606093928301828280156107c657602002820191906000526020600020905b81546001600160a01b031681526001909101906020018083116107a8575b50505050509050919050565b6001600160a01b0381166000908152600960209081526040918290208054835181840281018401909452808452606093928301828280156107c657602002820191906000526020600020905b81548152602001906001019080831161081e5750505050509050919050565b60006001600160a01b0383166108925760405162461bcd60e51b8152602060048201526015602482015274496e76616c696420746f6b656e206164647265737360581b60448201526064015b60405180910390fd5b603c82101580156108a6575062278d008211155b6108e55760405162461bcd60e51b815260206004820152601060248201526f24b73b30b634b210323ab930ba34b7b760811b6044820152606401610889565b60048054600091826108f68361207f565b90915550905060006109088442612098565b600083815260066020908152604080832080546001600160a01b0319908116339081178355600180840180546001600160a01b038f169416841790556002840188905560038401879055600484018790556008808501805461ffff1916905582885286528487208054918201815587529585902090950188905591518581529495509390929186917fba4f7b9b3112b2765d2aec2bf4910dc3a5b76d6d2efe907b71c671ecc374246c910160405180910390a450909150505b92915050565b6109cf6117c5565b806000811180156109e1575060045481105b6109fd5760405162461bcd60e51b8152600401610889906120ab565b610a056117f2565b6000828152600660205260409020600881015460ff1615610a745760405162461bcd60e51b815260206004820152602360248201527f43616e6e6f742077697468647261772066726f6d2066696e616c697a656420706044820152621bdbdb60ea1b6064820152608401610889565b600381015415610b165760018101546040516370a0823160e01b81523060048201526001600160a01b039091169060009082906370a0823190602401602060405180830381865afa158015610acd573d6000803e3d6000fd5b505050506040513d601f19601f82011682018060405250810190610af191906120d4565b90508015610b1357600254610b13906001600160a01b0384811691168361181c565b50505b60088101805461ff0019166101001790556003810154604051339185917f947a9dc0c5e62cc9756634ec0a89afea37eb0305933925040b9bda820044002091610b629190815260200190565b60405180910390a350610b7460018055565b5050565b610b806117c5565b6103e88161ffff161115610bce5760405162461bcd60e51b81526020600482015260156024820152740a0d8c2e8ccdee4da40cccaca40e8dede40d0d2ced605b1b6044820152606401610889565b6005805461ffff83811661ffff1983168117909355604080519190921680825260208201939093527f84e4fe32bf74c4011a7e1fde79c63acdffaf92a0112cde153e7b0abee665bc6b910160405180910390a15050565b610c2d6117c5565b610c376000611873565b565b80600081118015610c4b575060045481105b610c675760405162461bcd60e51b8152600401610889906120ab565b600082815260066020526040902060080154829060ff1615610c9b5760405162461bcd60e51b8152600401610889906120ed565b600081815260066020526040902060080154610100900460ff1615610cd25760405162461bcd60e51b81526004016108899061211d565b600083815260066020526040902080546001600160a01b03163314610d395760405162461bcd60e51b815260206004820152601760248201527f4f6e6c792063726561746f722063616e2063616e63656c0000000000000000006044820152606401610889565b600381015415610d8b5760405162461bcd60e51b815260206004820181905260248201527f43616e6e6f742063616e63656c20706f6f6c2077697468206465706f736974736044820152606401610889565b60088101805461ff001916610100179055604051339085907f9ae119ad1ce2eac1140c9effa2a35013f6d00959e36822bf0f56977f958a62d590600090a350505050565b6001600160a01b0381166000908152600860209081526040918290208054835181840281018401909452808452606093928301828280156107c6576020028201919060005260206000209081548152602001906001019080831161081e5750505050509050919050565b80600081118015610e4b575060045481105b610e675760405162461bcd60e51b8152600401610889906120ab565b610e6f6117f2565b6000828152600660205260409020600881015460ff16610ec65760405162461bcd60e51b8152602060048201526012602482015271141bdbdb081b9bdd08199a5b985b1a5e995960721b6044820152606401610889565b600083815260076020908152604080832033845290915290205460ff1615610f225760405162461bcd60e51b815260206004820152600f60248201526e105b1c9958591e4818db185a5b5959608a1b6044820152606401610889565b6000805b6003811015610f705733600584018260038110610f4557610f45612145565b01546001600160a01b031603610f5e5760019150610f70565b80610f688161207f565b915050610f26565b5080610fad5760405162461bcd60e51b815260206004820152600c60248201526b2737ba1030903bb4b73732b960a11b6044820152606401610889565b600060038360040154610fc09190612171565b9050600081116110085760405162461bcd60e51b81526020600482015260136024820152724e6f2072657761726420617661696c61626c6560681b6044820152606401610889565b6000858152600760209081526040808320338085529252808320805460ff1916600117905551909183156108fc02918491818181858888f19350505050158015611056573d6000803e3d6000fd5b50604051818152339086907f24b5efa61dd1cfc659205a97fb8ed868f3cb8c81922bab2b96423e5de1de2cb79060200160405180910390a3505050610b7460018055565b806000811180156110ac575060045481105b6110c85760405162461bcd60e51b8152600401610889906120ab565b600082815260066020526040902060080154829060ff16156110fc5760405162461bcd60e51b8152600401610889906120ed565b600081815260066020526040902060080154610100900460ff16156111335760405162461bcd60e51b81526004016108899061211d565b60008381526006602052604090206002015483904210156111965760405162461bcd60e51b815260206004820152601960248201527f506f6f6c20646561646c696e65206e6f742072656163686564000000000000006044820152606401610889565b61119e6117f2565b600084815260066020526040902060038101546111f35760405162461bcd60e51b8152602060048201526013602482015272139bc819195c1bdcda5d1cc81a5b881c1bdbdb606a1b6044820152606401610889565b60018101546003820154600091611215916001600160a01b03909116906118c3565b9050600081116112675760405162461bcd60e51b815260206004820181905260248201527f53776170206661696c6564206f72206e6f204d6f6e61642072656365697665646044820152606401610889565b6005546000906127109061127f9061ffff1684612185565b6112899190612171565b90506000611297828461219c565b905081156112db576002546040516001600160a01b039091169083156108fc029084906000818181858888f193505050501580156112d9573d6000803e3d6000fd5b505b60006112e6896118ff565b6004860183905590506112fe60058601826003611e07565b5060088501805460ff1916600117905560405189907f491362d72cba6beb7ef78bbf4267c84f44ea6906630fae87b5317ed2ba6ae15290611344908790859088906121af565b60405180910390a2505050505061135a60018055565b50505050565b81600081118015611372575060045481105b61138e5760405162461bcd60e51b8152600401610889906120ab565b600083815260066020526040902060080154839060ff16156113c25760405162461bcd60e51b8152600401610889906120ed565b600081815260066020526040902060080154610100900460ff16156113f95760405162461bcd60e51b81526004016108899061211d565b600084815260066020526040902060020154849042106114525760405162461bcd60e51b8152602060048201526014602482015273141bdbdb08191958591b1a5b99481c185cdcd95960621b6044820152606401610889565b61145a6117f2565b600084116114aa5760405162461bcd60e51b815260206004820152601d60248201527f416d6f756e74206d7573742062652067726561746572207468616e20300000006044820152606401610889565b60008581526006602052604090819020600181015491516323b872dd60e01b81523360048201523060248201526044810187905290916001600160a01b03169081906323b872dd906064016020604051808303816000875af1158015611514573d6000803e3d6000fd5b505050506040513d601f19601f8201168201806040525081019061153891906121d1565b50336000908152600a8301602052604081205490036115985760098083018054600181810183556000928352602080842090920180546001600160a01b031916339081179091558352928152604082208054938401815582529020018790555b336000908152600a830160205260409020546115b5908790612098565b336000908152600a8401602052604090205560038201546115d7908790612098565b60038301819055604080518881526020810192909252339189917fad5b4075b97dbf75ad5c78f7afac948e4ae611c4fdf2825e2ce3c6c96925bf3b910160405180910390a3505061162760018055565b5050505050565b6116366117c5565b6001600160a01b03811661168c5760405162461bcd60e51b815260206004820152601860248201527f496e76616c6964207472656173757279206164647265737300000000000000006044820152606401610889565b600280546001600160a01b038381166001600160a01b0319831681179093556040519116919082907f4ab5be82436d353e61ca18726e984e561f5c1cc7c6d38b29d2553c790434705a90600090a35050565b6116e66117c5565b6001600160a01b03811661171057604051631e4fbdf760e01b815260006004820152602401610889565b61171981611873565b50565b6117246117c5565b6001600160a01b0381166117735760405162461bcd60e51b8152602060048201526016602482015275496e76616c696420726f75746572206164647265737360501b6044820152606401610889565b600380546001600160a01b038381166001600160a01b0319831681179093556040519116919082907ff296fa3e8eb1c1d46e2d1eafbd38e92f916e42b9ce1573a1cc98b2d0e4e5e86290600090a35050565b6000546001600160a01b03163314610c375760405163118cdaa760e01b8152336004820152602401610889565b60026001540361181557604051633ee5aeb560e01b815260040160405180910390fd5b6002600155565b604080516001600160a01b038416602482015260448082018490528251808303909101815260649091019091526020810180516001600160e01b031663a9059cbb60e01b17905261186e908490611bde565b505050565b600080546001600160a01b038381166001600160a01b0319831681178455604051919092169283917f8be0079c531659141344cd1fd0a4f28419497f9722a3daafe3b4186f6b6457e09190a35050565b60006118e8604051806060016040528060228152602001612293602291398385611c41565b47806118f55760006118f7565b805b949350505050565b611907611de9565b600082815260066020908152604080832060098101805483518186028101860190945280845291949390919083018282801561196c57602002820191906000526020600020905b81546001600160a01b0316815260019091019060200180831161194e575b5050505050905060008151116119b45760405162461bcd60e51b815260206004820152600d60248201526c4e6f206465706f7369746f727360981b6044820152606401610889565b6119bc611de9565b6003825110611b6c5760408051426020808301919091524482840152606080830189905233901b6bffffffffffffffffffffffff19166080830152825180830360740181526094909201909252805191012060005b6003811015611b6557600084518383604051602001611a3a929190918252602082015260400190565b6040516020818303038152906040528051906020012060001c611a5d91906121f3565b9050848181518110611a7157611a71612145565b6020026020010151848360038110611a8b57611a8b612145565b6001600160a01b0390921660209290920201528115801590611af4575083611ab460018461219c565b60038110611ac457611ac4612145565b60200201516001600160a01b0316848360038110611ae457611ae4612145565b60200201516001600160a01b0316145b15611b52578451611b06826001612098565b611b1091906121f3565b9050848181518110611b2457611b24612145565b6020026020010151848360038110611b3e57611b3e612145565b6001600160a01b0390921660209290920201525b5080611b5d8161207f565b915050611a11565b50506118f7565b60005b825181108015611b7f5750600381105b15611bd557828181518110611b9657611b96612145565b6020026020010151828260038110611bb057611bb0612145565b6001600160a01b03909216602092909202015280611bcd8161207f565b915050611b6f565b50949350505050565b6000611bf36001600160a01b03841683611c88565b90508051600014158015611c18575080806020019051810190611c1691906121d1565b155b1561186e57604051635274afe760e01b81526001600160a01b0384166004820152602401610889565b61186e838383604051602401611c599392919061222b565b60408051601f198184030181529190526020810180516001600160e01b031663038fd88960e31b179052611c9d565b6060611c9683836000611ca6565b9392505050565b61171981611d43565b606081471015611ccb5760405163cd78605960e01b8152306004820152602401610889565b600080856001600160a01b03168486604051611ce79190612276565b60006040518083038185875af1925050503d8060008114611d24576040519150601f19603f3d011682016040523d82523d6000602084013e611d29565b606091505b5091509150611d39868383611d64565b9695505050505050565b60006a636f6e736f6c652e6c6f679050600080835160208501845afa505050565b606082611d7957611d7482611dc0565b611c96565b8151158015611d9057506001600160a01b0384163b155b15611db957604051639996b31560e01b81526001600160a01b0385166004820152602401610889565b5080611c96565b805115611dd05780518082602001fd5b604051630a12f52160e11b815260040160405180910390fd5b60405180606001604052806003906020820280368337509192915050565b8260038101928215611e4f579160200282015b82811115611e4f57825182546001600160a01b0319166001600160a01b03909116178255602090920191600190910190611e1a565b50611e5b929150611e5f565b5090565b5b80821115611e5b5760008155600101611e60565b600060208284031215611e8657600080fd5b5035919050565b8060005b600381101561135a5781516001600160a01b0316845260209384019390910190600101611e91565b6001600160a01b038981168252881660208201526040810187905260608101869052608081018590526101408101611ef460a0830186611e8d565b921515610100820152901515610120909101529695505050505050565b80356001600160a01b0381168114611f2857600080fd5b919050565b60008060408385031215611f4057600080fd5b611f4983611f11565b946020939093013593505050565b6020808252825182820181905260009190848201906040850190845b81811015611f985783516001600160a01b031683529284019291840191600101611f73565b50909695505050505050565b600060208284031215611fb657600080fd5b611c9682611f11565b6020808252825182820181905260009190848201906040850190845b81811015611f9857835183529284019291840191600101611fdb565b6000806040838503121561200a57600080fd5b8235915061201a60208401611f11565b90509250929050565b60006020828403121561203557600080fd5b813561ffff811681146118f557600080fd5b6000806040838503121561205a57600080fd5b50508035926020909101359150565b634e487b7160e01b600052601160045260246000fd5b60006001820161209157612091612069565b5060010190565b808201808211156109c1576109c1612069565b6020808252600f908201526e125b9d985b1a59081c1bdbdb081251608a1b604082015260600190565b6000602082840312156120e657600080fd5b5051919050565b602080825260169082015275141bdbdb08185b1c9958591e48199a5b985b1a5e995960521b604082015260600190565b6020808252600e908201526d141bdbdb0818d85b98d95b1b195960921b604082015260600190565b634e487b7160e01b600052603260045260246000fd5b634e487b7160e01b600052601260045260246000fd5b6000826121805761218061215b565b500490565b80820281158282048414176109c1576109c1612069565b818103818111156109c1576109c1612069565b83815260a081016121c36020830185611e8d565b826080830152949350505050565b6000602082840312156121e357600080fd5b815180151581146118f557600080fd5b6000826122025761220261215b565b500690565b60005b8381101561222257818101518382015260200161220a565b50506000910152565b606081526000845180606084015261224a816080850160208901612207565b6020830194909452506001600160a01b039190911660408201526080601f909201601f19160101919050565b60008251612288818460208701612207565b919091019291505056fe5377617070696e6720257320746f6b656e73206f6620257320666f72204d6f6e6164a2646970667358221220c5cc356b226ff6c886e5b6604a8986d572e6b49a460eedfd6a2325dd5571dfc864736f6c63430008140033",
  "devdoc": {
    "author": "BuidlGuidl",
    "details": "A gamified Web3 platform for depositing dead tokens and winning Monad rewards",
    "errors": {
      "AddressEmptyCode(address)": [
        {
          "details": "There's no code at `target` (it is not a contract)."
        }
      ],
      "AddressInsufficientBalance(address)": [
        {
          "details": "The ETH balance of the account is not enough to perform the operation."
        }
      ],
      "FailedInnerCall()": [
        {
          "details": "A call to an address target failed. The target may have reverted."
        }
      ],
      "OwnableInvalidOwner(address)": [
        {
          "details": "The owner is not a valid owner account. (eg. `address(0)`)"
        }
      ],
      "OwnableUnauthorizedAccount(address)": [
        {
          "details": "The caller account is not authorized to perform an operation."
        }
      ],
      "ReentrancyGuardReentrantCall()": [
        {
          "details": "Unauthorized reentrant call."
        }
      ],
      "SafeERC20FailedOperation(address)": [
        {
          "details": "An operation with an ERC20 token failed."
        }
      ]
    },
    "kind": "dev",
    "methods": {
      "cancelPool(uint256)": {
        "details": "Cancel a pool if no deposits have been made yet (creator only)",
        "params": {
          "poolId": "ID of the pool to cancel"
        }
      },
      "claimReward(uint256)": {
        "details": "Claim reward if user is a winner",
        "params": {
          "poolId": "ID of the pool to claim from"
        }
      },
      "createDeadpool(address,uint256)": {
        "details": "Create a new deadpool for a specific dead token",
        "params": {
          "duration": "Duration of the pool in seconds",
          "tokenAddress": "Address of the dead token"
        }
      },
      "depositToPool(uint256,uint256)": {
        "details": "Deposit dead tokens into an open pool",
        "params": {
          "amount": "Amount of tokens to deposit",
          "poolId": "ID of the pool to deposit to"
        }
      },
      "emergencyWithdraw(uint256)": {
        "details": "Emergency withdraw function for admin (owner only)",
        "params": {
          "poolId": "ID of the pool to withdraw from"
        }
      },
      "finalizePool(uint256)": {
        "details": "Finalize a pool after deadline - swap tokens and select winners",
        "params": {
          "poolId": "ID of the pool to finalize"
        }
      },
      "owner()": {
        "details": "Returns the address of the current owner."
      },
      "renounceOwnership()": {
        "details": "Leaves the contract without owner. It will not be possible to call `onlyOwner` functions. Can only be called by the current owner. NOTE: Renouncing ownership will leave the contract without an owner, thereby disabling any functionality that is only available to the owner."
      },
      "setDexRouter(address)": {
        "details": "Update DEX router address (owner only)",
        "params": {
          "newRouter": "New DEX router address"
        }
      },
      "setPlatformFee(uint16)": {
        "details": "Update platform fee (owner only)",
        "params": {
          "newFeeBps": "New platform fee in basis points (0-1000, max 10%)"
        }
      },
      "setTreasury(address)": {
        "details": "Update treasury address (owner only)",
        "params": {
          "newTreasury": "New treasury address"
        }
      },
      "transferOwnership(address)": {
        "details": "Transfers ownership of the contract to a new account (`newOwner`). Can only be called by the current owner."
      }
    },
    "title": "Deadpool",
    "version": 1
  },
  "userdoc": {
    "kind": "user",
    "methods": {},
    "version": 1
  },
  "storageLayout": {
    "storage": [
      {
        "astId": 8,
        "contract": "contracts/Deadpool.sol:Deadpool",
        "label": "_owner",
        "offset": 0,
        "slot": "0",
        "type": "t_address"
      },
      {
        "astId": 1523,
        "contract": "contracts/Deadpool.sol:Deadpool",
        "label": "_status",
        "offset": 0,
        "slot": "1",
        "type": "t_uint256"
      },
      {
        "astId": 1611,
        "contract": "contracts/Deadpool.sol:Deadpool",
        "label": "treasury",
        "offset": 0,
        "slot": "2",
        "type": "t_address"
      },
      {
        "astId": 1613,
        "contract": "contracts/Deadpool.sol:Deadpool",
        "label": "dexRouter",
        "offset": 0,
        "slot": "3",
        "type": "t_address"
      },
      {
        "astId": 1616,
        "contract": "contracts/Deadpool.sol:Deadpool",
        "label": "nextPoolId",
        "offset": 0,
        "slot": "4",
        "type": "t_uint256"
      },
      {
        "astId": 1619,
        "contract": "contracts/Deadpool.sol:Deadpool",
        "label": "platformFeeBps",
        "offset": 0,
        "slot": "5",
        "type": "t_uint16"
      },
      {
        "astId": 1650,
        "contract": "contracts/Deadpool.sol:Deadpool",
        "label": "pools",
        "offset": 0,
        "slot": "6",
        "type": "t_mapping(t_uint256,t_struct(Pool)1645_storage)"
      },
      {
        "astId": 1656,
        "contract": "contracts/Deadpool.sol:Deadpool",
        "label": "hasClaimed",
        "offset": 0,
        "slot": "7",
        "type": "t_mapping(t_uint256,t_mapping(t_address,t_bool))"
      },
      {
        "astId": 1661,
        "contract": "contracts/Deadpool.sol:Deadpool",
        "label": "userPools",
        "offset": 0,
        "slot": "8",
        "type": "t_mapping(t_address,t_array(t_uint256)dyn_storage)"
      },
      {
        "astId": 1666,
        "contract": "contracts/Deadpool.sol:Deadpool",
        "label": "userDeposits",
        "offset": 0,
        "slot": "9",
        "type": "t_mapping(t_address,t_array(t_uint256)dyn_storage)"
      }
    ],
    "types": {
      "t_address": {
        "encoding": "inplace",
        "label": "address",
        "numberOfBytes": "20"
      },
      "t_array(t_address)3_storage": {
        "base": "t_address",
        "encoding": "inplace",
        "label": "address[3]",
        "numberOfBytes": "96"
      },
      "t_array(t_address)dyn_storage": {
        "base": "t_address",
        "encoding": "dynamic_array",
        "label": "address[]",
        "numberOfBytes": "32"
      },
      "t_array(t_uint256)dyn_storage": {
        "base": "t_uint256",
        "encoding": "dynamic_array",
        "label": "uint256[]",
        "numberOfBytes": "32"
      },
      "t_bool": {
        "encoding": "inplace",
        "label": "bool",
        "numberOfBytes": "1"
      },
      "t_mapping(t_address,t_array(t_uint256)dyn_storage)": {
        "encoding": "mapping",
        "key": "t_address",
        "label": "mapping(address => uint256[])",
        "numberOfBytes": "32",
        "value": "t_array(t_uint256)dyn_storage"
      },
      "t_mapping(t_address,t_bool)": {
        "encoding": "mapping",
        "key": "t_address",
        "label": "mapping(address => bool)",
        "numberOfBytes": "32",
        "value": "t_bool"
      },
      "t_mapping(t_address,t_uint256)": {
        "encoding": "mapping",
        "key": "t_address",
        "label": "mapping(address => uint256)",
        "numberOfBytes": "32",
        "value": "t_uint256"
      },
      "t_mapping(t_uint256,t_mapping(t_address,t_bool))": {
        "encoding": "mapping",
        "key": "t_uint256",
        "label": "mapping(uint256 => mapping(address => bool))",
        "numberOfBytes": "32",
        "value": "t_mapping(t_address,t_bool)"
      },
      "t_mapping(t_uint256,t_struct(Pool)1645_storage)": {
        "encoding": "mapping",
        "key": "t_uint256",
        "label": "mapping(uint256 => struct Deadpool.Pool)",
        "numberOfBytes": "32",
        "value": "t_struct(Pool)1645_storage"
      },
      "t_struct(Pool)1645_storage": {
        "encoding": "inplace",
        "label": "struct Deadpool.Pool",
        "members": [
          {
            "astId": 1621,
            "contract": "contracts/Deadpool.sol:Deadpool",
            "label": "creator",
            "offset": 0,
            "slot": "0",
            "type": "t_address"
          },
          {
            "astId": 1623,
            "contract": "contracts/Deadpool.sol:Deadpool",
            "label": "tokenAddress",
            "offset": 0,
            "slot": "1",
            "type": "t_address"
          },
          {
            "astId": 1625,
            "contract": "contracts/Deadpool.sol:Deadpool",
            "label": "deadline",
            "offset": 0,
            "slot": "2",
            "type": "t_uint256"
          },
          {
            "astId": 1627,
            "contract": "contracts/Deadpool.sol:Deadpool",
            "label": "totalDeposited",
            "offset": 0,
            "slot": "3",
            "type": "t_uint256"
          },
          {
            "astId": 1629,
            "contract": "contracts/Deadpool.sol:Deadpool",
            "label": "totalMonadReceived",
            "offset": 0,
            "slot": "4",
            "type": "t_uint256"
          },
          {
            "astId": 1633,
            "contract": "contracts/Deadpool.sol:Deadpool",
            "label": "winners",
            "offset": 0,
            "slot": "5",
            "type": "t_array(t_address)3_storage"
          },
          {
            "astId": 1635,
            "contract": "contracts/Deadpool.sol:Deadpool",
            "label": "finalized",
            "offset": 0,
            "slot": "8",
            "type": "t_bool"
          },
          {
            "astId": 1637,
            "contract": "contracts/Deadpool.sol:Deadpool",
            "label": "cancelled",
            "offset": 1,
            "slot": "8",
            "type": "t_bool"
          },
          {
            "astId": 1640,
            "contract": "contracts/Deadpool.sol:Deadpool",
            "label": "depositors",
            "offset": 0,
            "slot": "9",
            "type": "t_array(t_address)dyn_storage"
          },
          {
            "astId": 1644,
            "contract": "contracts/Deadpool.sol:Deadpool",
            "label": "deposits",
            "offset": 0,
            "slot": "10",
            "type": "t_mapping(t_address,t_uint256)"
          }
        ],
        "numberOfBytes": "352"
      },
      "t_uint16": {
        "encoding": "inplace",
        "label": "uint16",
        "numberOfBytes": "2"
      },
      "t_uint256": {
        "encoding": "inplace",
        "label": "uint256",
        "numberOfBytes": "32"
      }
    }
  }
}